:020000040800F2
:10000000A8050020CD000008F3000008F500000856
:1000100000000000000000000000000000000000E0
:10002000000000000000000000000000F7000008D1
:100030000000000000000000F9000008FB000008BC
:10004000FD00000800000000FD000008FD000008A1
:10005000FD000008FD000008FD0000081D06000866
:1000600000000000FD000008FD000008E902000893
:10007000FD000008CD170008FD000008000000008A
:1000800039190008FD000008FD000008FD00000807
:10009000FD000008FD000008FD000008FD0000084C
:1000A000FD000008FD000008FD000008FD0000083C
:1000B000411C0008891C00080348854600F08EF8A2
:1000C00000480047F9200008A80500200C4880F3EC
:1000D00008880C480168090E0B4A914205D10B486B
:1000E0000B4901600B480C4901600C4880470C48E3
:1000F0000047FEE7FEE7FEE7FEE7FEE7FEE700005B
:10010000A8050020040000001F0000001810024095
:100110000100000000000140000000003517000849
:10012000B900000830B50B4601460020202201240A
:1001300009E00D46D5409D4205D31D469540491B1B
:100140002546954040191546521E002DF1DC30BD64
:1001500070B500242546002801DA01244042002918
:1001600001DA01254942FFF7DDFFAC4200D04042F1
:10017000002C00D0494270BD03460B439B0703D0BF
:1001800009E008C9121F08C0042AFAD203E00B785C
:100190000370401C491C521EF9D27047D2B201E0D4
:1001A0000270401C491EFBD270470022F6E710B5D2
:1001B00013460A4604461946FFF7F0FF204610BDD5
:1001C00030B504460020034600E05B1C934203D296
:1001D000E05CCD5C401BF8D030BD0000064C012532
:1001E000064E05E0E36807CC2B430C3C98471034DF
:1001F000B442F7D3FFF764FF80320008A032000852
:1002000010B50288121203784B401B06DB0D024C1E
:10021000E35A5A40028010BD803000080021C943D3
:1002200001807047F8B505460E466846FFF7F6FFB1
:10023000002404E0295D6846FFF7E2FF641CB44235
:10024000F8D368460088F8BDF8B506460F4615464F
:100250000024002000900421052000F037F8002140
:10026000012001F07EFE80210A2001F0E9F905E07D
:10027000315D092001F075FE601CC4B2BC42F7DBA1
:100280000321012001F06DFEFF2400BF052000F0D6
:10029000CAFF0090601EC4B2002C04D00421009854
:1002A00008400028F2D0222000F0BDFF2870212055
:1002B00000F0B9FF6870F8BDFF21C943884202D33E
:1002C0000021014A116070472000002070B50546EA
:1002D0000C46284600F0A7FF06463046A0430146DC
:1002E000284601F03EFE70BD10B50120400300F02D
:1002F0001DF9002803D00120000300F011F810BD03
:10030000012109070140002902D00349486001E0AA
:1003100002494860704700000004024000000240AB
:10032000012109070140002902D00349486001E08A
:10033000024948607047000000040240000002408B
:10034000002904D0026801231A43026003E0026816
:10035000014B1A4002607047FEFF000000B58DB0EF
:100360000121084600F0B0FD0B2108A8017401210D
:100370008174002141740CA800F05CFB0F4800F070
:1003800023F8802004901020039000200B900C484C
:1003900002900020089080200690002009900948D3
:1003A0000190002007900590012040030A9001A9C8
:1003B000024800F0DFF80DB000BD0000440002402C
:1003C00026010020284400400168554A1140016080
:1003D0000021016041608160C1605249884208D1BA
:1003E0005049083949680F2211434E4A083A516072
:1003F00094E04C491431884208D14A490839496887
:10040000F0221143474A083A516087E045492831B4
:10041000884209D14349083949680F221202114321
:10042000404A083A516079E03E493C31884209D15E
:100430003C49083949680F2212031143394A083AE6
:1004400051606BE037495031884209D1354908394C
:1004500049680F2212041143324A083A51605DE0A4
:1004600030496431884209D12E49083949680F2240
:10047000120511432B4A083A51604FE0294978315F
:10048000884209D12749083949680F2212061143C9
:10049000244A083A516041E02349884208D1224960
:1004A000083949680F2211431F4A083A516035E064
:1004B0001D491431884208D11B4908394968F02286
:1004C0001143194A083A516028E0174928318842F7
:1004D00009D11549083949680F2212021143124AFD
:1004E000083A51601AE010493C31884209D10E495E
:1004F000083949680F22120311430B4A083A516028
:100500000CE009495031884208D107490839496847
:100510000F2212041143044A083A51607047000048
:10052000FEFF0000080002400804024001460020CF
:10053000002201231B070B40002B02D0064B1A6838
:1005400001E0064B1A6813460B40002B01D0012036
:1005500000E000207047000000040240000002405C
:10056000002A03D003680B43036002E003688B4357
:100570000360704710B5002202680D4B1A400C6AE8
:100580008B6823430C6923434C6923438C692343C1
:10059000CC6923434C6A23438C6A23431A43026089
:1005A000CB6843600B6883604B68C36010BD00007C
:1005B0000F80FFFF00B585B00121084600F0A4FCC4
:1005C0000121C80400F080FC072168460170002169
:1005D00041700121817000F02DFA4020039000212C
:1005E000684601740121C1740321417403A90A48BA
:1005F00000F030F90621022001F002F840200190BD
:100600000021684601720C2141720121817201A80A
:1006100000F028F805B000BD0008004810B54020E3
:1006200000F012F8002805D001200349087040208E
:1006300000F004F810BD0000CC0000200149486122
:10064000704700000004014001460020044A52693E
:100650000A40002A01D0012000E00020704700007D
:1006600000040140002120498279002A35D00A4641
:10067000126803689A430B461A600A465268036878
:100680009A430B465A60027951180A6803681A4364
:100690000A60154A926803689A43134B9A601A4697
:1006A000D26803689A43104BDA604279102A0CD161
:1006B0001A46926803681A430B4B9A601A46D2682E
:1006C00003681A43084BDA600DE007494279511874
:1006D0000A6803681A430A6005E0027951180A683B
:1006E00003689A430A6070470004014010B500F0A7
:1006F000B5FD10BD0149C8607047000000200240F0
:1007000030B5044604250B20000400F08FF80546A0
:10071000042D17D10C480069022108430A490861D9
:1007200008464461006940210843074908610B20DD
:10073000000400F07BF80546034800690221884365
:1007400001490861284630BD0020024004200D49BF
:10075000C968C907C90F002901D0012010E0094963
:10076000C96810221140002901D0022008E0054983
:10077000C96804221140002901D0032000E00420B0
:1007800070470000002002400348006980210843B0
:1007900001490861704700000020024078B5064614
:1007A0000C460425002000900B20000400F03EF8C9
:1007B0000546042D24D1134800690121084311493D
:1007C000086134800B20000400F030F80546042D49
:1007D00010D1B01C0090200C009908800B20000460
:1007E00000F024F805460748006940084000054924
:1007F000086105E0034800694008400001490861BC
:10080000284678BD00200240054800698021084044
:10081000002804D0034802494860034848607047F4
:100820000020024023016745AB89EFCD10B5034698
:100830000424FFF78BFF044603E0FFF787FF04461D
:100840005B1E012C01D1002BF7D1002B00D1052418
:10085000204610BDF0B50A4600210023002400BF49
:100860003DE001258D402B4615681D402C469C42DD
:1008700034D11579012D02D01579022D16D1856854
:100880004F000326BE40B543856055794E00B54004
:10089000866835438560858801268E40B54385800E
:1008A000858896798E40B6B23543858005684F00BD
:1008B0000326BE40B543056015794E00B540066875
:1008C00035430560C5684F000326BE40B543C5608B
:1008D000D5794E00B540C6683543C560491C10291E
:1008E000BFD3F0BDF0B5002300244D07EE0E154632
:1008F000B5402B46CD10AE0005462035AD594E070C
:10090000F70E0F26BE40B543CE10B600074620377F
:10091000BD51CD10AE003D46AD591D432C46CD1006
:10092000AD003E467451F0BD02460020138A0B40D4
:10093000002B01D0012000E00020704701857047A6
:100940008161704710B50446412C20D1082108462A
:10095000FFF7BCFC3D21112001F003FB862117208D
:1009600001F0FFFA7F21262001F0FBFA1E212D2045
:1009700001F0F7FA00212C2001F0F3FA8D212A2052
:1009800001F0EFFA3E212B2001F0EBFA01E001200B
:1009900010BD0020FCE700001FB513A103C903919F
:1009A0000290002000900190002402AA052130202E
:1009B00000F0D8FD6A460521102000F09BFD00BF25
:1009C00008E06846005D02A9095D884200D003E0A6
:1009D000601CC4B2052CF4DB00BF052C02D1012041
:1009E00004B010BD0020FBE755010203AA0000007F
:1009F00070B50446072000F09DFD054629462720D6
:100A000000F0D0FD40202840002810D0602000F0E9
:100A100091FD212108552120015D621C612000F01B
:100A200069FDFF21E22000F0BDFD402070BD0020E7
:100A3000FCE7000000218278002A27D0184A03230F
:100A40001B02D21803789B109B00D15802789207A2
:100A5000D30EFF229A400B469343194642789207E1
:100A6000120E03789B07DB0E9A4011430C4A0323B6
:100A70001B02D21803789B109B00D1500278D3063A
:100A8000DB0E01229A40064B1A6007E00278D3067B
:100A9000DB0E01229A40024B80331A60704700003F
:100AA00000E100E07CB5064600BF02F005F8002139
:100AB0000191009000BF35E01C48007800281AD052
:100AC00000201A4908700846FFF792FF17482030A7
:100AD00041781F3801F032F814492031487801F08C
:100AE00027F81248203041781F38FFF75EFB0021BD
:100AF0000E482030417001F0C1FF012801D102F001
:100B00004FFA01F0D9FF002504462B46019A0099BF
:100B1000601A93410021801B8B4103D32046FFF7CD
:100B2000CBFB00E0C8E700BF7CBD0000CC0000208C
:100B300010B503211420FFF7C9FB10BDF0B587B035
:100B4000054601260024002700210691142101A852
:100B5000FFF72BFB08210846FFF7B8FB00210D200B
:100B600001F0FFF980210E20FFF7B0FB93216846CA
:100B700001712021417106A801AB022201A9009058
:100B80000C2000F01BF80646002E0FD107E001A84C
:100B9000005D285501A8005D4740601CC4B2042CCC
:100BA000F5DB01A8005DB84200D0012680210E20AF
:100BB00000F046FD304607B0F0BD0000FFB585B03F
:100BC00006460F46012004900020039002900190F9
:100BD000002500240C2E06D00E2E09D112200390E1
:100BE0001020029005E0772003903020029000E072
:100BF00000BF00BF8022039810430146022001F08D
:100C0000B0F980210420FFF761FB0021012001F0F1
:100C1000A8F980210A2000F013FD05E0395D0920C4
:100C200001F09FF9601C84B207988442F6DB3146DC
:100C3000012001F096F90C2E03D180210D2000F047
:100C4000FFFC304C00BF042000F0EDFA0546601EAA
:100C500084B2002C07D0E807C00F002803D1029807
:100C600028400028EFD080210D20FFF72FFB002C1B
:100C70003DD0062000F0D7FA1B210840002834D1CF
:100C8000049003982840C007C00F002801D001201D
:100C900004900C2E2BD10A2000F0C5FA05460C203A
:100CA00000F0C1FA4007400F01900198002807D0DA
:100CB000681EC1000198081881B20E98018002E0F8
:100CC000E9000E980180002D00D10125122D00DDD4
:100CD0001225002406E0092000F0A5FA089908551D
:100CE000601C84B2AC42F6DB01E00120049080215C
:100CF0000C2000F0A5FC0021012001F032F904983D
:100D000009B0F0BD7017000070B588B005460C46FC
:100D1000012600210791142102A8FFF746FA0821B5
:100D20000846FFF7D3FA07210D2001F01AF9032135
:100D3000142000F085FC6846057207A802AB01226A
:100D400002A900900C20FFF739FF0646002E0AD1B9
:100D50006846808B102806D16846007A2070684665
:100D6000407A607000E00126304608B070BD10B5D2
:100D7000012109030920C006FFF7E2FD0A2000F067
:100D80008BF8012109030920C006FFF7D7FD0A20CF
:100D900000F082F8012109030920C006FFF7D0FD09
:100DA0000A2000F079F80F21012001F0DAF83D2146
:100DB000112001F0D6F81E212D2001F0D2F80021DB
:100DC0002C2001F0CEF88D212A2001F0CAF83E2116
:100DD0002B2001F0C6F84021152001F0C2F80020B8
:100DE00010BD70B588B0054601260024002107918A
:100DF000142102A8FFF7D9F99321684601727021E6
:100E00004172002181730BE0295D02AAA01C1154DC
:100E10006946887B295D484069468873601CC4B276
:100E2000042CF1DB03AA0332072102A8FFF70CFA16
:100E300008210846FFF74AFA07A802AB092202A9CF
:100E400000900C20FFF7BAFE0646002E04D168463B
:100E5000808B182800D100E00126304608B070BD14
:100E60001CB50121480400F02FF80120C0030090B8
:100E70000121684601710321417100218171C17115
:100E800069460920C006FFF7E5FC0121C9030920D6
:100E9000C006FFF753FD1CBD3021414388B200BF9F
:100EA0000146421E90B20029FAD1704710B501F0F8
:100EB000C3FDFFF75CFFFFF73BFE4120FFF742FD5C
:100EC0000A20FFF7E9FF10BD002905D0054A526945
:100ED0000243044B5A6104E0024A52698243014BC7
:100EE0005A61704700100240002905D0054AD269B6
:100EF0000243044BDA6104E0024AD2698243014BA7
:100F0000DA61704700100240002905D0054A926955
:100F10000243044B9A6104E0024A92698243014B06
:100F20009A61704700100240FEB504460025002675
:100F300000200290019000900027864840680C2114
:100F400008400546002D06D0042D07D0082D08D0F6
:100F50000C2D2CD128E0804820602BE07E482060BA
:100F600028E07C4840680F218904084006467948FB
:100F700040680321C90308400290B00C861C029807
:100F8000002803D17548374647430BE07148C06AD3
:100F90000007000F401C01906F480199FFF7C2F84D
:100FA00070430746276005E06D48206002E06A480C
:100FB000206000BF00BF67484068F0210840054638
:100FC0002D096848405D009020680099C840606025
:100FD0006048406807210902084005462D0A61481B
:100FE000405D009061680098C140A1605948006B65
:100FF000FF2101310840884202D05B48E0600DE0EB
:1010000054484068012189030840884203D0A06801
:101010004008E06002E0A0688008E0604D48006B96
:1010200040210840402802D05048206102E00120C1
:10103000C00320614748006B10210840102802D0EF
:101040004548606101E0206860614248006B8007AC
:10105000800F002802D1A068A06119E03D48006B14
:101060008007800F012802D12068A06110E0394874
:10107000006B8007800F022802D18003A06107E087
:101080003448006B8007800F032801D13248A061EB
:101090003048006B032109040840002802D1A068F1
:1010A000E06120E02B48006B032109040840012186
:1010B0000904884202D12068E06114E02548006BF1
:1010C00003210904084001214904884202D180100B
:1010D000E06108E01F48006B0321090408408842D2
:1010E00001D11D48E0611B48006B032189040840C1
:1010F000002802D1A068206220E01648006B03217E
:101100008904084001218904884202D120682062B4
:1011100014E01048006B0321890408400121C90430
:10112000884202D10011206208E00A48006B0321C6
:1011300089040840884201D1074820620548006BB5
:1011400080210840802802D00548606200E0676284
:10115000FEBD00000010024000127A0000093D00B0
:10116000006CDC0208000020809FD5001280000087
:1011700070B505460E460024FFF7F9FD31465220B2
:10118000FFF7C2FD0446002C01D0204670BD284662
:10119000FFF7D4FC0446002C01D02046F6E7284691
:1011A000FFF71FFE0446002C01D02046EEE7204644
:1011B000ECE700001CB501218804FFF785FE202024
:1011C0000090012168460171032141710021817164
:1011D000C17169460448FFF73DFB20210248FFF733
:1011E000ADFB00F065FD1CBD0004004870B5044671
:1011F0000D462020064988612946204600F0B4FDAE
:1012000000F008F8202002492031088170BD00005C
:10121000000400480120800200BF0146421E90B237
:101220000029FAD1704770B5044660007E2108405D
:1012300005468035002610210920C006FFF77EFBF9
:10124000284600F0CEF800F0A7F806461021092045
:10125000C006FFF775FB304670BD000010B50024D6
:10126000FFF785FD0B49881CFFF782FF0446002C21
:101270000AD004210748801CFEF797FF054800218B
:1012800001704170204610BD0621024800F056FC56
:101290002046F8E7EE00002000B587B00121880461
:1012A000FFF712FE01218803FFF71EFE00220D2129
:1012B0002A48FFF717FB00220E212848FFF712FBF0
:1012C00000220F212548FFF70DFB07204003059062
:1012D000022168460176002181760121C176032131
:1012E000417605A91D48FFF7B5FA012000030590D6
:1012F00000216846817601210176C176032141767D
:1013000005A91648FFF7A6FA012109031348FFF7BC
:1013100017FB002168460180FF210531418007212C
:10132000090281800021C18001810121490241819E
:10133000102181810021C18107210182694608486D
:1013400000F094F801210903054800F049F9012152
:10135000034800F073F807B000BD00000004004827
:101360000038004010B5044600BF0221094800F0D3
:1013700073F80028F9D02146064800F03BF900BF79
:101380000121044800F068F80028F9D0014800F075
:1013900021F910BD0038004070B5002500241CE084
:1013A0006006040E20210920C006FFF7C7FA0120BD
:1013B000FFF772FD40210920C006FFF7B5FA0028AB
:1013C00001D00120044320210920C006FFF7B8FA0C
:1013D0000120FFF761FD681CC5B2082DE0DB204647
:1013E00070BD70B50446002525E08020204000280F
:1013F00005D080210920C006FFF7A2FA04E0802171
:101400000920C006FFF79AFA0120FFF745FD2021C9
:101410000920C006FFF792FA0120FFF73DFD2021C9
:101420000920C006FFF78CFA0120FFF735FD6006A2
:10143000040E681CC5B2082DD7DB70BD002904D08E
:10144000028840231A43028003E00288014B1A40BD
:1014500002807047BFFF00000246002013890B4046
:10146000002B01D0012000E00020704710B50022C1
:101470000288C1239B011A400B88CC892343CC8866
:1014800023430C8923434C8923438C8923431A43E8
:1014900002808288084B1A408B881A4382800B8A0C
:1014A00003820288054B1A404B881A430280838BC3
:1014B000034C2340838310BDFFF00000FBFF0000BE
:1014C000FFF700001CB580200090012168460171E3
:1014D000002181710321417169460548FFF7BAF97E
:1014E00080210348FFF72AFAFFF7D6FE1CBD000053
:1014F00000080048F8B507460D46164601210903C5
:101500000B48FFF71BFA3846FFF72CFF009000242A
:1015100005E0FF20FFF726FF3055601CC4B2AC4247
:10152000F7DB012109030248FFF70AFA0098F8BD2A
:101530000004004870B50446012109030848FFF77C
:10154000FDF92046FFF70EFFFF20FFF70BFF0546D2
:10155000012109030248FFF7F3F9284670BD000096
:1015600000040048F8B507460D461446012109035A
:101570000B48FFF7E3F93846FFF7F4FE009000262A
:1015800005E02078641CFFF7EDFE701CC6B2AE4289
:10159000F7DB012109030248FFF7D2F90098F8BDF3
:1015A0000004004870B505460C46012109030848AF
:1015B000FFF7C4F92846FFF7D5FE06462046FFF799
:1015C000D1FE012109030248FFF7BAF9304670BD88
:1015D00000040048014600220A460C321078704789
:1015E0008288034B1A40828082880A438280704737
:1015F000FFEF0000002202460C321170704700001D
:1016000030B500228B071C0F0F23A3401A460B4B4B
:101610008C10A4001B599343084C8D10AD006351EE
:1016200023468C10A4001B598C07250F0446AC40A0
:101630002343024C8D10AD00635130BD08000140C2
:1016400070B505460C462846FFF7EDFD06463046C8
:1016500020430146284600F084FC70BD0CB50020F4
:1016600001900090314800680121090408432F4986
:10167000086000BF2D48006801214904084000901F
:101680000198401C01900098002804D1052109030D
:1016900001988842EED1254800680121490408409C
:1016A000002802D00120009001E000200090009866
:1016B000012839D111201E4908601C4840681B4987
:1016C0004860084640684860084640687F21C90372
:1016D00088431649486008464068112109040843B8
:1016E00012494860084600680121090608430F496D
:1016F000086000BF0D480068012149060840002825
:10170000F8D00A48406880088000084948600846C8
:101710004068022108430549486000BF034840680B
:101720000C2108400828F9D10CBD0000001002402F
:101730000020024010B51B480068012108431949E8
:10174000086008464068184908401649486008463D
:1017500000681649084013490860084600680121DE
:10176000890488430F490860084640683F210904FE
:1017700088430C4948600846C06A00090001C862F5
:101780000846006BFF215431884306490863084628
:10179000406B40084000486300208860FFF75EFF10
:1017A00010BD0000001002400CB8FF08FFFFF6FE5D
:1017B00010B500F00FFDFFF753FB00F08FF800F0BD
:1017C000B3F9FFF7F7FCFFF771FB10BD10B501216E
:1017D000054800F004F9002805D00121024800F076
:1017E000DBF801F00DFB10BD002C014070B58CB092
:1017F00004460025002601214804FFF765FBFF2071
:1018000001300290022168460173032141730021D7
:1018100081730121C17302A90920C006FFF71AF8DC
:10182000022208210920C006FFF75CF80D21684656
:10183000017101214171817101A8FFF7FBF8632C4F
:1018400001DC012C01DA0CB070BD2149214800688F
:10185000FEF768FC401E85B2691E6143084664219C
:10186000FEF760FC86B20121C802FFF74DFB0021A4
:1018700068468184C1840A95818508A8817309A975
:10188000154800F013F901221146134800F0BAF888
:1018900070216846018201214182042181820696DD
:1018A000022181830021C183FF21013101840021B4
:1018B000418404A9084800F0AFF80121064800F06F
:1018C0007DF80121044800F06BF800BFBBE7000081
:1018D00048E801005C000020002C01400EB500F03B
:1018E0001BF80B4801902F216846018000214180A0
:1018F00001816946074800F0D9F8012211460548E0
:1019000000F080F80121034800F04AF80EBD000005
:101910000F2700000004004008B501210220FFF756
:10192000E3FA1021684601700321417001218170A2
:10193000FFF780F808BD000010B53C2401211148D4
:1019400000F04DF800281BD001210E4800F024F8CB
:1019500001F0A0F8440021460B480068FEF7E2FBC6
:10196000002902D10120094908700948007800289F
:1019700001D10848007804480068401C024908600A
:1019800010BD0000000400402000002040000020A6
:101990004800002050000020CA4302827047000027
:1019A000002904D0028801231A43028003E0028840
:1019B000014B1A4002807047FEFF0000002907D04B
:1019C0004422125A0123DB031A4344231A5205E02E
:1019D0004422125A53045B0C44221352704730B510
:1019E0000246002000230024158A0D402B469589CD
:1019F0000D402C46002B03D0002C01D0012000E02C
:101A0000002030BD002A03D083890B43838102E08C
:101A100083898B438381704770B5002400220023A3
:101A2000058C1C4E35400584028C8388048B194D2F
:101A30006F3D2C40B51E2C400D882C43751E2A404E
:101A40008D892A434D882A43134DA84208D0134D4F
:101A5000A84205D0124DA84202D0124DA84212D180
:101A60000C4DED1F2A40CD892A430A4DED1E2A4018
:101A70008D882A43074DFF3D2B400B4D2B400D8A8F
:101A80002B434D8A2B43838004838D6845630284F6
:101A900070BD0000FEFF0000002C0140004001402E
:101AA0000044014000480140FFFD00000022028880
:101AB000154B984206D001239B07984202D0134B46
:101AC000984203D1124B1A404B881A43114B98424B
:101AD00003D0114B1A400B891A4302804B68C36232
:101AE0000B880385084B984208D00C4B984205D0D0
:101AF0000B4B984202D00B4B984201D18B7A038654
:101B00000123838270470000002C01400004004044
:101B10008FFF000000100040FFFC0000004001406B
:101B2000004401400048014010B500F039F810BDF4
:101B300010B50446204600F097F810BD70B5054674
:101B40000C4601200003FEF7DBFB00211148FEF7E5
:101B5000F7FB00228021104800F021F90D48001FFA
:101B60008460224629460D48FEF706FB01228021AB
:101B7000094800F014F94021074800F002F9012259
:101B800002210448FEF7ECFC01210248FEF7D8FBD5
:101B900070BD0000440002400044004026010020C7
:101BA00000B589B001212348FFF78EF901214804CF
:101BB000FFF79AF9012202210920C006FEF792FEE2
:101BC000012203210920C006FEF78CFE0C2007909D
:101BD000022108A80170002181700121C170032138
:101BE000417007A90920C006FEF734FEE12040023B
:101BF0000190002002900390049006900C20059024
:101C000001A90D4800F028F901210B4800F0BBF8AC
:101C100001220A49084800F0FDF81C2168460170BD
:101C20000221417001218170FEF704FFFEF796FB4F
:101C300009B000BD0100020000440040050105009C
:101C400010B500240649074800F0BDF8002806D06A
:101C5000044800F07DF9C4B2204600F005F810BD3C
:101C6000050105000044004010B504462146054822
:101C700000F073F900BF8021024800F09AF80028B4
:101C8000F9D010BD0044004010B5002406490748B3
:101C900000F099F8002806D0044800F059F9C4B2C1
:101CA0002046FFF7E1FF10BD05010500004C004094
:101CB00000B589B00121C804FFF706F90121C80465
:101CC000FFF712F900220A211C48FEF70BFE002242
:101CD0000B211A48FEF706FE03208002079002211E
:101CE00008A80170002181700121C1700321417099
:101CF00007A91248FEF7AEFDE12040020190002046
:101D000002900390049006900C20059001A90C48C5
:101D100000F0A2F801210A4800F035F80122094933
:101D2000074800F077F81D216846017002214170D4
:101D300001218170FEF77EFE09B000BD0008004859
:101D4000004C00400501050010B504462146054839
:101D500000F003F900BF8021024800F02AF80028B3
:101D6000F9D010BD004C004070B505460E46002469
:101D700004E0285DFFF7E8FF601CC4B2B442F8DB62
:101D800070BD01627047002904D0026801231A4324
:101D9000026003E002685208520002607047002AA5
:101DA00003D083680B43836002E083688B438360C6
:101DB000704702460020D3690B40002B01D0012060
:101DC00000E00020704770B502460B460024002159
:101DD000002500201E04350ED9B201268E40314662
:101DE000012D02D11668314006E0022D02D156685D
:101DF000314001E0966831401C0C0126A640344673
:101E0000D6693440002903D0002C01D0012000E025
:101E1000002070BDF8B5034600240026009600257A
:101E2000002018460E04340ECEB200960127009E04
:101E3000B7403D46022C01D1001D02E0032C00D129
:101E40000830002A03D006682E43066002E00668C8
:101E5000AE430660F8BD0000F0B58BB004460D46F9
:101E6000002700200A9000262068400840002060DB
:101E7000666803210903304688430646A86806437E
:101E8000666026682D480640E96868680843296945
:101E9000084306432660A6680321090230468843AA
:101EA000064668690643A6606846FFF73DF8244881
:101EB000844202D106980A900DE02248844202D161
:101EC00007980A9007E02048844202D108980A90B7
:101ED00001E002980A9020680121C9030840002807
:101EE0000CD029680A9A5000FEF71CF907462968A9
:101EF0000A9A5000FEF716F90E4609E029680A987A
:101F0000FEF710F9074629680A98FEF70BF90E4606
:101F100028684008B04200D87F1C20680121C9030E
:101F20000840002806D03807460F384607490840C1
:101F300030430746A7810BB0F0BD0000F3E9FFFF77
:101F4000003801400044004000480040F0FF00001D
:101F50000146888CC005C00D7047CA05D20D0285A8
:101F6000704770B504460D4660007E210840064665
:101F700010210920C006FEF7E1FC3046FFF731FAD8
:101F80002846FFF72EFA10210920C006FEF7D8FCDC
:101F900070BD02E008C8121F08C1002AFAD17047BC
:101FA0007047002001E001C1121F002AFBD17047D9
:101FB000F7B58EB017460024202106A8FEF7F5F8E5
:101FC00000200590049003900290019000250026C7
:101FD00000900F2F02DDFF2011B0F0BD00262AE097
:101FE0000020009018E00F98805D802200990A413F
:101FF0001040002806D06004040C01200443600453
:10200000040C05E06004040C6004040C012004438B
:102010000098401CC0B2009000980828E3DBFF2025
:10202000000220400012710006AA50547000401CAB
:102030001454701CC6B2BE42D2DB3807000E0590A5
:102040000E9800F081FC43E0E81004906807400F10
:102050000390681CC5B2E81002906807400F019019
:1020600006A90498085C802203990A4110400028C0
:1020700017D006A90298085C802201990A411040F5
:10208000002808D01548006841000E9800F04FFC69
:10209000681CC5B21CE0114801680E9800F047FCAE
:1020A00016E006A90298095C8022019802411140BD
:1020B000002905D0094801680E9800F02BFC07E0C4
:1020C0000648006841000E9800F024FC681CC5B268
:1020D00005988542B8DB00207EE70000280000203C
:1020E000F8B507460C461546002629462046FEF759
:1020F00099F806463046F8BDFFF71CFBFFF758FB82
:1021000007210D48FFF71AFD07210B48FFF76EF86E
:10211000032300226121012000F012FB00F010FFD8
:10212000322000F0CFFC05E0FEF7E0FAFF202D3072
:10213000FEF7B8FCF8E700000000002070B5044688
:102140000D46074840690221884369000843044955
:102150004861012C01D100F0B1F8002070BD0000F1
:102160007000002038B504460020009000F020F8F0
:1021700005460020694608706020284348706A467A
:102180000221204600F0BCF8002038BD70B504469E
:102190000D460648007F20700448027F01461D312D
:1021A0002846FDF7E9FF002070BD00007000002008
:1021B0000249097B0807000F7047000070000020EB
:1021C00003494968FF2212011140080970470000C5
:1021D00070000020F0B595B00027002400250026EF
:1021E0000020019000224C21334800F01FFB002802
:1021F00002D0601E15B0F0BD01224C2102A800F0F3
:1022000015FB002802D00020C043F3E70021019114
:102210004A27294CA41C3A46214668468088FFF785
:102220005FFF0190A01E018868468088814200D02F
:102230000125002101914A2702ACA41C3A462146FF
:1022400068468088FFF74CFF0190684601898088C6
:10225000814200D00126012D05D1012E03D100F0CD
:1022600069F80020C6E7012D0DD1012E0BD04C22BC
:1022700002A91148FDF780FF00224C210E4800F012
:10228000E5FA0020B6E7012D08D0012E06D1012283
:102290004C21094800F0DAFA0020ABE74C2202A9F1
:1022A0000548FDF78DFF002804D001224C2102488B
:1022B00000F0CCFA00209DE77000002070B50024EB
:1022C000002600250D488078401C0C49887000BF0E
:1022D0004A260C46A41C324621462846FFF700FF3A
:1022E0000546A01E058000224C2100F0AFFA012215
:1022F0004C21A01E00F0AAFA002070BD7000002042
:1023000070B506460C461546202C01DC002D02D186
:102310000020C04370BD0648847022462946C01C78
:10232000FDF72AFF012E01D1FFF7C8FF0020F1E7DA
:102330009000002008B531A0006800900322002121
:10234000084600F0DBF800221146104600F0F4F8D1
:1023500061220021084600F0AFF80721002000F0BC
:10236000D1F90021084600F09BF90121002000F07E
:10237000B5F900210846FFF7E1FE0121002000F039
:1023800069F80321002000F085F80021084600F0DC
:1023900037F800221146104600F04EF80020FFF7F3
:1023A000E1FE0121002000F039F86A4603210020F7
:1023B00000F054F80021084600F04CF900210846CE
:1023C00000F036F91E21002000F024F90121002040
:1023D00000F0E4F80021084600F054F90121002043
:1023E00000F0C8F83221002000F0ECF802210020B3
:1023F00000F002F9FFF762FF002008BD2122230050
:1024000070B504460D4604480583012C01D1FFF741
:1024100055FF002070BD00007000002070B504461C
:102420000D460448C576012C01D1FFF747FF002077
:1024300070BD00007000002070B504460E461546C1
:1024400003488576012C01D1FFF738FF002070BDCD
:1024500070000020024600207047000070B506465C
:102460000C461546052C03DC002D01D0002C02D1B2
:102470000020C04370BD06480477224629461D301F
:10248000FDF77AFE012E01D1FFF718FF0020F1E7DA
:102490007000002070B505460C460648C06800096B
:1024A000000120430349C8602846FFF75BFE002077
:1024B00070BD00007000002070B505460E46144641
:1024C000612C01DC4C2C02DA0020C04370BD0A48AC
:1024D0004068FF21090188432101084306494860FB
:1024E000012E02D1204600F02EFC012D01D1FFF774
:1024F000E5FE0020EAE700007000002070B5054608
:102500000E461446032C02DD0020C04370BD09486E
:10251000406880088000204306494860012E02D1AF
:10252000204600F030FC012D01D1FFF7C7FE00204E
:10253000ECE700007000002070B505460E4614461A
:10254000022C02DD0020C04370BD094840680C2108
:102550008843A100084306494860012E02D1204665
:1025600000F023FC012D01D1FFF7A8FE0020EBE7CE
:102570007000002070B505460C46002C04D0012CDC
:1025800002D00020C04370BD03480472012D01D168
:10259000FFF794FE0020F6E7B000002070B5054676
:1025A0000C46002C04D0012C02D00020C04370BD8A
:1025B00003488471012D01D1FFF780FE0020F6E76A
:1025C000B000002070B505460C462007000F00281B
:1025D00004D0F02020400011002802D10020C04388
:1025E00070BD04488472012D01D1FFF767FE002001
:1025F000F6E70000B000002070B504460D46044820
:102600004572012C01D1FFF759FE002070BD00007A
:10261000B000002070B504460D4604484571012CF9
:1026200001D1FFF74BFE002070BD0000B00000207C
:1026300070B505460C46032C02DD0020C04370BD7A
:1026400003480471012D01D1FFF738FE0020F6E7A1
:10265000B000002070B505460C46002C08D0012CB7
:1026600006D0022C04D0812C02D00020C04370BDC3
:102670000348C470012D01D1FFF720FE0020F6E7CA
:10268000B000002070B504460D460448C571012C09
:1026900001D1FFF713FE002070BD0000B000002044
:1026A00070B505460C46002C08D0012C06D0022C33
:1026B00004D0032C02D00020C04370BD06488068BF
:1026C00018218843E100084303498860012D01D1A6
:1026D000FFF7F4FD0020F0E77000002070B504461D
:1026E0000D46074880686021884369010843044912
:1026F0008860012C01D1FFF7E1FD002070BD0000D2
:102700007000002070B505460C46002C08D0012C46
:1027100006D0062C04D0072C02D00020C04370BD88
:1027200006488068C008C000204304498860012D25
:1027300001D1FFF7C3FD0020F1E700007000002089
:10274000FEB504460D4616461F46FEF7BBFEFDF7D6
:1027500031FF00BFFEF720F90128FBD1012C1FD16A
:10276000032210491048FDF707FD03200E49491EBA
:1027700008700846002100913B46324601910290C4
:102780002946204600F03AFAFF21E220FEF70AFF30
:10279000FF21E120FEF706FF70212720FEF702FF50
:1027A000FEBD000024000020BD00002070B50446DE
:1027B00000250020FEF7BEFE0546680840002043C5
:1027C000054629462020FEF7EDFE70BD70B5044693
:1027D00000250020FEF7AEFE05462846022188436C
:1027E00061000843C5B229462020FEF7DBFE70BD1C
:1027F000F8B505460F4616461C463946284600F0F1
:10280000E5F9002C08D0002E06D029462A31C8B29E
:1028100032462146FEF7A6FEF8BD70B504460D46C9
:10282000224629463020FEF79DFE70BD70B5064653
:102830000C461546E802044A811822463046FDF748
:102840009BFC002070BD000000900008FEB506460D
:102850000C46174601200290FDF7D6FF3420FDF705
:1028600049FF72B6F902294A8818FDF749FF042882
:1028700001D000200290F802244940182449086041
:102880002046E117890F091889108900611A00D0C4
:10289000241D2046E117890F09188C1000252CE013
:1028A00000200190A800315CA800401C305C0002B0
:1028B0000918A800801C305C00040918A800C01C7E
:1028C000305C000608180190A900114A12688818A7
:1028D0000199FDF763FF042801D0002002900C4805
:1028E00000680068A900401800900199009888428B
:1028F00001D000200290681CC5B2A542D0DB62B6B0
:10290000FDF742FF6846007AFEBD00000090000817
:102910001C00002070B505460C46012D03D1204651
:1029200000F0AEFA02E0204600F0C4FA70BD70B5C7
:1029300005460C46012D03D1204600F0D5FA02E0F1
:10294000204600F0E7FA70BDFEB5074600260024D9
:10295000002500200290019000903148006840005E
:1029600002903048007801902F4805682F48007881
:1029700000902F480078102802D1C6022D0C01E0EB
:102980000126F60734462B4801683846FFF7CFFF8B
:10299000234801683846FFF7BDFF09E02048016879
:1029A0003846FFF7C4FF1E4801683846FFF7B2FFFC
:1029B0000198411EC9B201910028EFD100BF24E067
:1029C00028462040002810D060082840002805D064
:1029D00038460299FFF7ABFFA40816E010480168DB
:1029E0003846FFF7A4FF64080FE06008284000287D
:1029F00006D00B4801683846FFF78CFF640804E0F6
:102A000038460299FFF786FFA408002CD8D1344637
:102A10000098411EC9B200910028D0D1FEBD00002F
:102A20002800002030000020340000203300002067
:102A3000320000202C0000201CB501214804FEF7C4
:102A400043FA0D480090012168460171032141714C
:102A50000021817169460920C006FDF7FBFE402078
:102A600000900021684601710121C1716946092069
:102A7000C006FDF7EFFE1CBDB01000000148C07E8F
:102A800070470000700000200148807A7047000005
:102A9000B00000200148407970470000B0000020DD
:102AA0000148C07870470000B00000200148C0799C
:102AB00070470000B000002001490868704700001E
:102AC0002000002010B504460120C0030921C906DA
:102AD00088612046FDF7E6FF0120C0030149088117
:102AE00010BD000020000048F8B504460D46002641
:102AF00000271C20FEF71EFD06460120A040C7B29D
:102B00003046B8432946A1400843C6B231463C206E
:102B1000FEF748FDF8BDF8B505460E4617460024F9
:102B20001D20FEF707FD04466008400028430446C8
:102B300020460221884371000843044620460421B0
:102B40008843B9000843044621463D20FEF72AFD8C
:102B5000F8BDF8B505460E46174600240020FEF7DE
:102B6000E9FC04462046402188430121694089014F
:102B70000843044620462021884301217140490131
:102B80000843044620461021884301217940090169
:102B90000843044621462020FEF704FDF8BDF8B5A1
:102BA00004460D46002600270120FEF7C3FC06461A
:102BB0000120A040C7B23046B8432946A14008438F
:102BC000C6B231462120FEF7EDFCF8BDF8B504464B
:102BD0000D46002600270220FEF7ACFC0646012029
:102BE000A040C7B23046B8432946A1400843C6B208
:102BF00031462220FEF7D6FCF8BD0000FFB581B0BB
:102C000005460E4617460C9C80213948FDF796FE76
:102C100001210020FFF7C3FF00210120FFF7BFFFC4
:102C200000210220FFF7BBFF00210320FFF7B7FFC1
:102C300000210420FFF7B3FF00210520FFF7AFFFBD
:102C400001210020FFF7C2FF00210120FFF7BEFF96
:102C500000210220FFF7BAFF00210320FFF7B6FF93
:102C600000210420FFF7B2FF00210520FFF7AEFF8F
:102C70000121084600F04EF82846FFF797FD002D89
:102C800005D1012211460020FFF763FF04E0012275
:102C900000211046FFF75DFF0A990B9800F05CF8E1
:102CA000012000F027F82378621C01210020FFF7A3
:102CB0009FFD2178601CFFF7B0FD01210020FFF788
:102CC00013FF304600F03FF8049800F05CF83846F7
:102CD00000F06BF8012211460020FFF71CFF0120D5
:102CE000FFF774FD80210248FDF72AFE05B0F0BD14
:102CF0000008004870B5044600250320FEF71AFCC2
:102D00000546A80880002043054629462320FEF7F3
:102D100049FC70BD70B505460E4600240020FEF744
:102D200009FC0446204608218843E900084304467C
:102D3000204604218843B1000843C4B22146202024
:102D4000FEF730FC70BD10B504466406640E2146E3
:102D50002520FEF727FC10BD70B505460E46002461
:102D60000420FEF7E7FB0446200900013043044637
:102D70002046F021884329010843C4B2214624207B
:102D8000FEF710FC70BD70B5044600250620FEF766
:102D9000D1FB054628460621884361000843C5B299
:102DA00029462620FEF7FEFB70BD70B505460024BF
:102DB0000620FEF7BFFB0446002D08D12046202147
:102DC00088430446204608218843044612E0012D2A
:102DD00008D1204620218843044620460821884304
:102DE000441807E020462021884344182046082143
:102DF0008843044621462620FEF7D4FB70BD000020
:102E00001A480078002816D019480068002805D113
:102E1000164908700220174988610CE014480068C0
:102E2000401E1349086011480078012803D1022090
:102E300010492031088110480078002815D00F482B
:102E40000068002805D10C490870012009498861F3
:102E50000BE00A480068401E0849086006480078F0
:102E6000012802D103492031088170474800002021
:102E70004C000020000400485000002054000020B6
:102E800000E000BF084909780029FAD1074909780C
:102E90000029F6D10221044A1170022800D9801EAF
:102EA00003490860704700004800002050000020DF
:102EB0004C00002000E000BF084909780029FAD141
:102EC000074909780029F6D10221054A1170022824
:102ED00000D9801E034908607047000048000020A8
:102EE000500000205400002000E000BF064909788F
:102EF0000029FAD1054909780029F6D10121024AB1
:102F000011700349086070474800002050000020FD
:102F10004C00002000E000BF064909780029FAD1E2
:102F2000054909780029F6D10121034A11700349A6
:102F30000860704748000020500000205400002026
:102F400010B5002400F082F8FFF79EFD04462046ED
:102F5000FEF74CFC00F002F810BD000030200949DB
:102F60000860FA20084908600620084908801020F7
:102F7000074908700020074908700748074908609A
:102F800070470000280000202C00002030000020A6
:102F900032000020330000205555A55A340000208F
:102FA000FEB500200190029000900024002500262C
:102FB00023480078012841D1224800210160416066
:102FC000FFF76EFD1F4908700820487001A9684688
:102FD000FFF7DCF8032201A91A48801CFDF7CCF8A2
:102FE000FFF764FD17494871FFF7EAF861210F1AEE
:102FF00003213846FDF7ACF84007400F11498871AE
:103000000E4600BF03E0305D4540601CC4B2072C93
:10301000F9D30C48C5710C480078401C0A49087067
:1030200008460078C007C00F087008220549064806
:103030000078FEF7BDFF002001490870FEBD0000CA
:103040004000002038000020580000201CB501215D
:103050008804FDF739FF03200090012168460171C3
:103060000321417100218171C17169460348FDF757
:10307000F1FB03210148FDF763FC1CBD000400487F
:103080000000891112239B322446AD573665BF7468
:10309000488CC19D5AAFD3BE6CCAE5DB7EE9F7F818
:1030A0008110080193331A22A5562C47B7753E6448
:1030B000C99C408DDBBF52AEEDDA64CBFFF976E8F8
:1030C00002218B30100299132667AF763444BD5528
:1030D0004AADC3BC588ED19F6EEBE7FA7CC8F5D9D8
:1030E00083310A2091121803A7772E66B5543C4508
:1030F000CBBD42ACD99E508FEFFB66EAFDD874C9B8
:1031000004428D5316619F702004A9153227BB36E7
:103110004CCEC5DF5EEDD7FC6888E1997AABF3BA97
:1031200085520C4397711E60A1142805B3373A26C7
:10313000CDDE44CFDFFD56ECE9986089FBBB72AA77
:1031400006638F7214409D512225AB343006B917A7
:103150004EEFC7FE5CCCD5DD6AA9E3B8788AF19B57
:1031600087730E6295501C41A3352A24B116380787
:10317000CFFF46EEDDDC54CDEBB962A8F99A708B37
:10318000088481951AA793B62CC2A5D33EE1B7F067
:103190004008C919522BDB3A644EED5F766DFF7C17
:1031A000899400859BB712A6ADD224C3BFF136E047
:1031B000C1184809D33B5A2AE55E6C4FF77D7E6CF7
:1031C0000AA583B4188691972EE3A7F23CC0B5D127
:1031D0004229CB38500AD91B666FEF7E744CFD5DD7
:1031E0008BB502A499961087AFF326E2BDD034C107
:1031F000C3394A28D11A580BE77F6E6EF55C7C4DB7
:103200000CC685D71EE597F42880A1913AA3B3B2E6
:10321000444ACD5B5669DF78600CE91D722FFB3E96
:103220008DD604C79FF516E4A9902081BBB332A2C6
:10323000C55A4C4BD7795E68E11C680DF33F7A2E76
:103240000EE787F61CC495D52AA1A3B03882B193A6
:10325000466BCF7A5448DD59622DEB3C700EF91F56
:103260008FF706E69DD414C5ABB122A0B992308386
:10327000C77B4E6AD5585C49E33D6A2CF11E780F36
:10328000A03200080000002070000000921F00081B
:10329000103300087000002038050000A21F00084D
:1032A0005374617274210A000000000001020304DB
:1032B00001020304060708090000000000000000E6
:1032C00000FFFFFF2122230000000000000000009B
:1032D00000000000000000000000000000000000EE
:1032E00000000000000000000000000000000000DE
:1032F000000000000000000000000000006CDC0284
:103300000000000000000000010203040607080995
:04000005080000B936
:00000001FF
